{
  "contractName": "LiquidityMigrator",
  "abi": [
    {
      "inputs": [
        {
          "internalType": "address",
          "name": "_router",
          "type": "address"
        },
        {
          "internalType": "address",
          "name": "_pair",
          "type": "address"
        },
        {
          "internalType": "address",
          "name": "_routerFork",
          "type": "address"
        },
        {
          "internalType": "address",
          "name": "_pairFork",
          "type": "address"
        },
        {
          "internalType": "address",
          "name": "_bonusToken",
          "type": "address"
        }
      ],
      "stateMutability": "nonpayable",
      "type": "constructor"
    },
    {
      "inputs": [],
      "name": "admin",
      "outputs": [
        {
          "internalType": "address",
          "name": "",
          "type": "address"
        }
      ],
      "stateMutability": "view",
      "type": "function"
    },
    {
      "inputs": [],
      "name": "bonusToken",
      "outputs": [
        {
          "internalType": "contract BonusToken",
          "name": "",
          "type": "address"
        }
      ],
      "stateMutability": "view",
      "type": "function"
    },
    {
      "inputs": [],
      "name": "migrationDone",
      "outputs": [
        {
          "internalType": "bool",
          "name": "",
          "type": "bool"
        }
      ],
      "stateMutability": "view",
      "type": "function"
    },
    {
      "inputs": [],
      "name": "pair",
      "outputs": [
        {
          "internalType": "contract IUniswapV2Pair",
          "name": "",
          "type": "address"
        }
      ],
      "stateMutability": "view",
      "type": "function"
    },
    {
      "inputs": [],
      "name": "pairFork",
      "outputs": [
        {
          "internalType": "contract IUniswapV2Pair",
          "name": "",
          "type": "address"
        }
      ],
      "stateMutability": "view",
      "type": "function"
    },
    {
      "inputs": [],
      "name": "router",
      "outputs": [
        {
          "internalType": "contract IUniswapV2Router02",
          "name": "",
          "type": "address"
        }
      ],
      "stateMutability": "view",
      "type": "function"
    },
    {
      "inputs": [],
      "name": "routerFork",
      "outputs": [
        {
          "internalType": "contract IUniswapV2Router02",
          "name": "",
          "type": "address"
        }
      ],
      "stateMutability": "view",
      "type": "function"
    },
    {
      "inputs": [
        {
          "internalType": "address",
          "name": "",
          "type": "address"
        }
      ],
      "name": "unclaimedBalances",
      "outputs": [
        {
          "internalType": "uint256",
          "name": "",
          "type": "uint256"
        }
      ],
      "stateMutability": "view",
      "type": "function"
    },
    {
      "inputs": [
        {
          "internalType": "uint256",
          "name": "amount",
          "type": "uint256"
        }
      ],
      "name": "deposit",
      "outputs": [],
      "stateMutability": "nonpayable",
      "type": "function"
    },
    {
      "inputs": [],
      "name": "migrate",
      "outputs": [],
      "stateMutability": "nonpayable",
      "type": "function"
    },
    {
      "inputs": [],
      "name": "claimLpTokens",
      "outputs": [],
      "stateMutability": "nonpayable",
      "type": "function"
    }
  ],
  "bytecode": "0x60806040523480156200001157600080fd5b5060405162001810380380620018108339818101604052810190620000379190620001de565b846000806101000a81548173ffffffffffffffffffffffffffffffffffffffff021916908373ffffffffffffffffffffffffffffffffffffffff16021790555083600160006101000a81548173ffffffffffffffffffffffffffffffffffffffff021916908373ffffffffffffffffffffffffffffffffffffffff16021790555082600260006101000a81548173ffffffffffffffffffffffffffffffffffffffff021916908373ffffffffffffffffffffffffffffffffffffffff16021790555081600360006101000a81548173ffffffffffffffffffffffffffffffffffffffff021916908373ffffffffffffffffffffffffffffffffffffffff16021790555080600460006101000a81548173ffffffffffffffffffffffffffffffffffffffff021916908373ffffffffffffffffffffffffffffffffffffffff16021790555033600560006101000a81548173ffffffffffffffffffffffffffffffffffffffff021916908373ffffffffffffffffffffffffffffffffffffffff1602179055505050505050620002ae565b600081519050620001d88162000294565b92915050565b600080600080600060a08688031215620001f757600080fd5b60006200020788828901620001c7565b95505060206200021a88828901620001c7565b94505060406200022d88828901620001c7565b93505060606200024088828901620001c7565b92505060806200025388828901620001c7565b9150509295509295909350565b60006200026d8262000274565b9050919050565b600073ffffffffffffffffffffffffffffffffffffffff82169050919050565b6200029f8162000260565b8114620002ab57600080fd5b50565b61155280620002be6000396000f3fe608060405234801561001057600080fd5b50600436106100a95760003560e01c80638fd3ab80116100715780638fd3ab8014610156578063a8aa1b3114610160578063b6b55f251461017e578063c896c18c1461019a578063f851a440146101a4578063f887ea40146101c2576100a9565b80630d81a570146100ae57806341d4a1ab146100cc57806359201402146100ea578063766faf36146101085780638bf6afaf14610126575b600080fd5b6100b66101e0565b6040516100c39190611274565b60405180910390f35b6100d46101f3565b6040516100e1919061128f565b60405180910390f35b6100f2610219565b6040516100ff91906112aa565b60405180910390f35b61011061023f565b60405161011d91906112c5565b60405180910390f35b610140600480360381019061013b9190610e4b565b610265565b60405161014d9190611360565b60405180910390f35b61015e61027d565b005b61016861096d565b60405161017591906112aa565b60405180910390f35b61019860048036038101906101939190610ec6565b610993565b005b6101a2610b83565b005b6101ac610d98565b6040516101b9919061110c565b60405180910390f35b6101ca610dbe565b6040516101d791906112c5565b60405180910390f35b600760009054906101000a900460ff1681565b600460009054906101000a900473ffffffffffffffffffffffffffffffffffffffff1681565b600360009054906101000a900473ffffffffffffffffffffffffffffffffffffffff1681565b600260009054906101000a900473ffffffffffffffffffffffffffffffffffffffff1681565b60066020528060005260406000206000915090505481565b600560009054906101000a900473ffffffffffffffffffffffffffffffffffffffff1673ffffffffffffffffffffffffffffffffffffffff163373ffffffffffffffffffffffffffffffffffffffff161461030d576040517f08c379a0000000000000000000000000000000000000000000000000000000008152600401610304906112e0565b60405180910390fd5b60001515600760009054906101000a900460ff16151514610363576040517f08c379a000000000000000000000000000000000000000000000000000000000815260040161035a90611300565b60405180910390fd5b6000600160009054906101000a900473ffffffffffffffffffffffffffffffffffffffff1673ffffffffffffffffffffffffffffffffffffffff16630dfe16816040518163ffffffff1660e01b815260040160206040518083038186803b1580156103cd57600080fd5b505afa1580156103e1573d6000803e3d6000fd5b505050506040513d601f19601f820116820180604052508101906104059190610e74565b90506000600160009054906101000a900473ffffffffffffffffffffffffffffffffffffffff1673ffffffffffffffffffffffffffffffffffffffff1663d21220a76040518163ffffffff1660e01b815260040160206040518083038186803b15801561047157600080fd5b505afa158015610485573d6000803e3d6000fd5b505050506040513d601f19601f820116820180604052508101906104a99190610e74565b90506000600160009054906101000a900473ffffffffffffffffffffffffffffffffffffffff1673ffffffffffffffffffffffffffffffffffffffff166370a08231306040518263ffffffff1660e01b8152600401610508919061110c565b60206040518083038186803b15801561052057600080fd5b505afa158015610534573d6000803e3d6000fd5b505050506040513d601f19601f820116820180604052508101906105589190610eef565b905060008054906101000a900473ffffffffffffffffffffffffffffffffffffffff1673ffffffffffffffffffffffffffffffffffffffff1663baa2abde84848460008030426040518863ffffffff1660e01b81526004016105c0979695949392919061115e565b6040805180830381600087803b1580156105d957600080fd5b505af11580156105ed573d6000803e3d6000fd5b505050506040513d601f19601f820116820180604052508101906106119190610f18565b505060008373ffffffffffffffffffffffffffffffffffffffff166370a08231306040518263ffffffff1660e01b815260040161064e919061110c565b60206040518083038186803b15801561066657600080fd5b505afa15801561067a573d6000803e3d6000fd5b505050506040513d601f19601f8201168201806040525081019061069e9190610eef565b905060008373ffffffffffffffffffffffffffffffffffffffff166370a08231306040518263ffffffff1660e01b81526004016106db919061110c565b60206040518083038186803b1580156106f357600080fd5b505afa158015610707573d6000803e3d6000fd5b505050506040513d601f19601f8201168201806040525081019061072b9190610eef565b90508473ffffffffffffffffffffffffffffffffffffffff1663095ea7b3600260009054906101000a900473ffffffffffffffffffffffffffffffffffffffff16846040518363ffffffff1660e01b815260040161078a92919061124b565b602060405180830381600087803b1580156107a457600080fd5b505af11580156107b8573d6000803e3d6000fd5b505050506040513d601f19601f820116820180604052508101906107dc9190610e9d565b508373ffffffffffffffffffffffffffffffffffffffff1663095ea7b3600260009054906101000a900473ffffffffffffffffffffffffffffffffffffffff16836040518363ffffffff1660e01b815260040161083a92919061124b565b602060405180830381600087803b15801561085457600080fd5b505af1158015610868573d6000803e3d6000fd5b505050506040513d601f19601f8201168201806040525081019061088c9190610e9d565b50600260009054906101000a900473ffffffffffffffffffffffffffffffffffffffff1673ffffffffffffffffffffffffffffffffffffffff1663e8e3370086868585878730426040518963ffffffff1660e01b81526004016108f69897969594939291906111cd565b606060405180830381600087803b15801561091057600080fd5b505af1158015610924573d6000803e3d6000fd5b505050506040513d601f19601f820116820180604052508101906109489190610f54565b5050506001600760006101000a81548160ff0219169083151502179055505050505050565b600160009054906101000a900473ffffffffffffffffffffffffffffffffffffffff1681565b60001515600760009054906101000a900460ff161515146109e9576040517f08c379a00000000000000000000000000000000000000000000000000000000081526004016109e090611300565b60405180910390fd5b600160009054906101000a900473ffffffffffffffffffffffffffffffffffffffff1673ffffffffffffffffffffffffffffffffffffffff166323b872dd3330846040518463ffffffff1660e01b8152600401610a4893929190611127565b602060405180830381600087803b158015610a6257600080fd5b505af1158015610a76573d6000803e3d6000fd5b505050506040513d601f19601f82011682018060405250810190610a9a9190610e9d565b50600460009054906101000a900473ffffffffffffffffffffffffffffffffffffffff1673ffffffffffffffffffffffffffffffffffffffff166340c10f1933836040518363ffffffff1660e01b8152600401610af892919061124b565b600060405180830381600087803b158015610b1257600080fd5b505af1158015610b26573d6000803e3d6000fd5b5050505080600660003373ffffffffffffffffffffffffffffffffffffffff1673ffffffffffffffffffffffffffffffffffffffff1681526020019081526020016000206000828254610b79919061138c565b9250508190555050565b6000600660003373ffffffffffffffffffffffffffffffffffffffff1673ffffffffffffffffffffffffffffffffffffffff168152602001908152602001600020541015610c06576040517f08c379a0000000000000000000000000000000000000000000000000000000008152600401610bfd90611340565b60405180910390fd5b60011515600760009054906101000a900460ff16151514610c5c576040517f08c379a0000000000000000000000000000000000000000000000000000000008152600401610c5390611320565b60405180910390fd5b6000600660003373ffffffffffffffffffffffffffffffffffffffff1673ffffffffffffffffffffffffffffffffffffffff1681526020019081526020016000205490506000600660003373ffffffffffffffffffffffffffffffffffffffff1673ffffffffffffffffffffffffffffffffffffffff16815260200190815260200160002081905550600360009054906101000a900473ffffffffffffffffffffffffffffffffffffffff1673ffffffffffffffffffffffffffffffffffffffff1663a9059cbb33836040518363ffffffff1660e01b8152600401610d4292919061124b565b602060405180830381600087803b158015610d5c57600080fd5b505af1158015610d70573d6000803e3d6000fd5b505050506040513d601f19601f82011682018060405250810190610d949190610e9d565b5050565b600560009054906101000a900473ffffffffffffffffffffffffffffffffffffffff1681565b60008054906101000a900473ffffffffffffffffffffffffffffffffffffffff1681565b600081359050610df1816114d7565b92915050565b600081519050610e06816114d7565b92915050565b600081519050610e1b816114ee565b92915050565b600081359050610e3081611505565b92915050565b600081519050610e4581611505565b92915050565b600060208284031215610e5d57600080fd5b6000610e6b84828501610de2565b91505092915050565b600060208284031215610e8657600080fd5b6000610e9484828501610df7565b91505092915050565b600060208284031215610eaf57600080fd5b6000610ebd84828501610e0c565b91505092915050565b600060208284031215610ed857600080fd5b6000610ee684828501610e21565b91505092915050565b600060208284031215610f0157600080fd5b6000610f0f84828501610e36565b91505092915050565b60008060408385031215610f2b57600080fd5b6000610f3985828601610e36565b9250506020610f4a85828601610e36565b9150509250929050565b600080600060608486031215610f6957600080fd5b6000610f7786828701610e36565b9350506020610f8886828701610e36565b9250506040610f9986828701610e36565b9150509250925092565b610fac816113e2565b82525050565b610fbb816113f4565b82525050565b610fca8161142a565b82525050565b610fd98161144e565b82525050565b610fe881611472565b82525050565b610ff781611496565b82525050565b600061100a600a8361137b565b91507f6f6e6c792061646d696e000000000000000000000000000000000000000000006000830152602082019050919050565b600061104a60168361137b565b91507f6d6967726174696f6e20616c726561647920646f6e65000000000000000000006000830152602082019050919050565b600061108a60168361137b565b91507f6d6967726174696f6e206e6f7420646f6e6520796574000000000000000000006000830152602082019050919050565b60006110ca60148361137b565b91507f6e6f20756e636c61696d65642062616c616e63650000000000000000000000006000830152602082019050919050565b61110681611420565b82525050565b60006020820190506111216000830184610fa3565b92915050565b600060608201905061113c6000830186610fa3565b6111496020830185610fa3565b61115660408301846110fd565b949350505050565b600060e082019050611173600083018a610fa3565b6111806020830189610fa3565b61118d60408301886110fd565b61119a6060830187610fee565b6111a76080830186610fee565b6111b460a0830185610fa3565b6111c160c08301846110fd565b98975050505050505050565b6000610100820190506111e3600083018b610fa3565b6111f0602083018a610fa3565b6111fd60408301896110fd565b61120a60608301886110fd565b61121760808301876110fd565b61122460a08301866110fd565b61123160c0830185610fa3565b61123e60e08301846110fd565b9998505050505050505050565b60006040820190506112606000830185610fa3565b61126d60208301846110fd565b9392505050565b60006020820190506112896000830184610fb2565b92915050565b60006020820190506112a46000830184610fc1565b92915050565b60006020820190506112bf6000830184610fd0565b92915050565b60006020820190506112da6000830184610fdf565b92915050565b600060208201905081810360008301526112f981610ffd565b9050919050565b600060208201905081810360008301526113198161103d565b9050919050565b600060208201905081810360008301526113398161107d565b9050919050565b60006020820190508181036000830152611359816110bd565b9050919050565b600060208201905061137560008301846110fd565b92915050565b600082825260208201905092915050565b600061139782611420565b91506113a283611420565b9250827fffffffffffffffffffffffffffffffffffffffffffffffffffffffffffffffff038211156113d7576113d66114a8565b5b828201905092915050565b60006113ed82611400565b9050919050565b60008115159050919050565b600073ffffffffffffffffffffffffffffffffffffffff82169050919050565b6000819050919050565b60006114358261143c565b9050919050565b600061144782611400565b9050919050565b600061145982611460565b9050919050565b600061146b82611400565b9050919050565b600061147d82611484565b9050919050565b600061148f82611400565b9050919050565b60006114a182611420565b9050919050565b7f4e487b7100000000000000000000000000000000000000000000000000000000600052601160045260246000fd5b6114e0816113e2565b81146114eb57600080fd5b50565b6114f7816113f4565b811461150257600080fd5b50565b61150e81611420565b811461151957600080fd5b5056fea2646970667358221220ee9a406c4cfa085e9d7d77b8ac8eeb93b103eac27a27545a0bb1b0f00f629e8864736f6c63430008000033",
  "immutableReferences": {},
  "source": "pragma solidity =0.8.0;\n\nimport '@openzeppelin/contracts/token/ERC20/IERC20.sol';\nimport '@uniswap/v2-periphery/contracts/interfaces/IUniswapV2Router02.sol';\nimport './IUniswapV2Pair.sol';\nimport './BonusToken.sol';\n\ncontract LiquidityMigrator {\n  IUniswapV2Router02 public router;\n  IUniswapV2Pair public pair;\n  IUniswapV2Router02 public routerFork;\n  IUniswapV2Pair public pairFork;\n  BonusToken public bonusToken;\n  address public admin;\n  mapping(address => uint) public unclaimedBalances;\n  bool public migrationDone;\n\n  constructor(\n    address _router, \n    address _pair, \n    address _routerFork,\n    address _pairFork,\n    address _bonusToken\n  ) public {\n    router = IUniswapV2Router02(_router);\n    pair = IUniswapV2Pair(_pair); \n    routerFork = IUniswapV2Router02(_routerFork);\n    pairFork = IUniswapV2Pair(_pairFork);\n    bonusToken = BonusToken(_bonusToken);\n    admin = msg.sender;\n  }\n\n  function deposit(uint amount) external {\n    require(migrationDone == false, 'migration already done');\n    pair.transferFrom(msg.sender, address(this), amount);\n    bonusToken.mint(msg.sender, amount);\n    unclaimedBalances[msg.sender] += amount;\n  }\n\n  function migrate() external {\n    require(msg.sender == admin, 'only admin');\n    require(migrationDone == false, 'migration already done');\n    IERC20 token0 = IERC20(pair.token0());\n    IERC20 token1 = IERC20(pair.token1());\n    uint totalBalance = pair.balanceOf(address(this));\n    router.removeLiquidity(\n      address(token0),\n      address(token1),\n      totalBalance,\n      0,\n      0,\n      address(this),\n      block.timestamp\n    );\n\n    uint token0Balance = token0.balanceOf(address(this));\n    uint token1Balance = token1.balanceOf(address(this));\n    token0.approve(address(routerFork), token0Balance); \n    token1.approve(address(routerFork), token1Balance); \n\n    routerFork.addLiquidity(\n      address(token0),\n      address(token1),\n      token0Balance,\n      token1Balance,\n      token0Balance,\n      token1Balance,\n      address(this),\n      block.timestamp\n    );\n    migrationDone = true;\n  }\n\n  function claimLpTokens() external {\n    require(unclaimedBalances[msg.sender] >= 0, 'no unclaimed balance');\n    require(migrationDone == true, 'migration not done yet');\n    uint amountToSend = unclaimedBalances[msg.sender];\n    unclaimedBalances[msg.sender] = 0;\n    pairFork.transfer(msg.sender, amountToSend);\n  }\n}\n",
  "sourcePath": "/Users/James/Documents/2forkuniswap/migrator/contracts/LiquidityMigrator.sol",
  "compiler": {
    "name": "solc",
    "version": "0.8.0+commit.c7dfd78e.Emscripten.clang"
  },
  "schemaVersion": "3.4.1",
  "updatedAt": "2021-06-12T17:05:28.198Z",
  "devdoc": {
    "kind": "dev",
    "methods": {},
    "version": 1
  },
  "userdoc": {
    "kind": "user",
    "methods": {},
    "version": 1
  },
  "db": {
    "callBytecode": {
      "id": "0xf793304e3840b85ab6fcd4828d3bd2c5aa608d8d6e43dd3315695f9cc73c919d"
    },
    "createBytecode": {
      "id": "0x0b0239e22cac800bbf25564af12d1a2513f6d688e9fee40f8fe17a9a258153b5"
    },
    "contract": {
      "id": "0x04cd99df8e3841d315ad4534ba1ccc4cc5d3872401829e8553b437b7cfb1e0ad"
    }
  }
}